:020000040800F2
:10000000481C0020450100084B2A00084122000836
:10001000492A0008DD0F0008F92D00080000000043
:100020000000000000000000000000004F2A00084F
:100030007D110008000000004D2A0008512A000828
:100040005F0100085F0100085F0100085F01000810
:100050005F0100085F0100085F0100085F01000800
:100060005F0100085F0100085F0100085F010008F0
:100070005F0100085F0100085F0100085F010008E0
:100080005F0100085F0100085F0100085F010008D0
:100090005F0100085F0100085F0100085F010008C0
:1000A0005F0100085F0100085F0100085F010008B0
:1000B000ED2A00085F0100085F0100085F010008E9
:1000C0005F0100085F0100085F0100085F01000890
:1000D0005F010008CD2D00085F010008D92D000840
:1000E0005F0100085F0100085F0100085F01000870
:1000F0005F0100085F0100085F0100085F01000860
:100100005F0100085F0100085F0100085F0100084F
:100110005F0100085F0100085F0100085F0100083F
:100120005F0100085F0100085F0100085F0100082F
:10013000DFF80CD000F058FD00480047BD43000830
:10014000481C00200648804706480047FEE7FEE7B7
:10015000FEE7FEE7FEE7FEE7FEE7FEE7FEE7FEE777
:10016000A52A000831010008202A04DB203A21FAE0
:1001700002F00021704721FA02F3D040C2F12002C0
:10018000914008431946704740EA01039B0703D09A
:1001900009E008C9121F08C0042AFAD203E011F8C6
:1001A000013B00F8013B521EF9D27047D2B201E088
:1001B00000F8012B491EFBD270470022F6E710B56C
:1001C00013460A4604461946FFF7F0FF204610BDC5
:1001D00030B505462A460B4612F8010B13F8014BC1
:1001E00008B1A042F8D01CB1002802D06D1CF1E784
:1001F000284630BD421C10F8011B0029FBD1801A93
:100200007047034611F8012B00F8012B002AF9D1A1
:10021000184670470FB400B58DB010A909900B9027
:1002200000914FF0FF300A9000200C900548069096
:10023000054807906A4609A80F9900F029FB0DB000
:100240005DF814FBAD080008CB0800082DE9FF4F4E
:10025000087883B09946FF2805D0491C2D2804D082
:100260000024002008E000200BE00124F9E700EB67
:10027000800003EB4000491C0B78FF2BF7D104B141
:10028000404200230293147819461D462D2C01D0BC
:100290002B2C04D1521C2D2C13D000240294AA46DE
:1002A0001478FF2C0FD00A25A3FB057801FB0581EC
:1002B0004FF0000C03FB0C11521CE3194AEB010137
:1002C000EEE70124EAE7814453EA010002D019F580
:1002D000C87F06DA03980021C0E9001107B0BDE825
:1002E000F08F0025AE4E2F46DFF8B882184600F09A
:1002F0003BFCCDE90001B9F1000002DAC9F10004CC
:1003000000E004460023A74A1AEB030B42EB045A11
:1003100012E0E00707D02A4633463846414600F04F
:1003200042FB074688462A4633461046194600F0E7
:100330003AFB05460E466410002CEAD1DDE90001C7
:10034000B9F1000F5A46534606DA00F09EFB3A46D2
:10035000434600F09AFB05E000F025FB3A46434691
:1003600000F021FB029A0AB181F00041039AC2E930
:100370000001B3E72DE9FF4F1F468DB0D7E90146D5
:100380004FF0FF382E2045464FF000090B90B96919
:100390006D1C0E988847396A824688470028F6D136
:1003A000BAF1FF3F0AD024F4D064002E11DDBAF177
:1003B0002B0F08D0BAF12D0F0BD102E0404611B03F
:1003C0008DE744F48064B9696D1C0E9888478246B5
:1003D000761E6946600501D52D2000E02B208DF8A2
:1003E000000001F1010B0DF1200809E0B9696D1C55
:1003F0000E98884782460F9844F40074761E056074
:10040000002E02DDBAF1300FF0D00B998A453ED1B3
:1004100044F0800406E00F99681CA9F1010944F436
:1004200000740860B9696D1C761E0E988847824674
:100430003028F0D02BE00B998A4505D1200603D453
:1004400044F08004761E18E0504602F035FE08B3F2
:100450000DF11301761E44F400748B4508D2AAF105
:1004600030000BF8010B200607D5A9F1010003E0CD
:10047000200602D409F101008146A00502D50F999A
:10048000681C0860B9696D1C0E9888478246002E6A
:10049000D1DC53E0002E51DDBAF1650F02D0BAF184
:1004A000450F4BD1A00549D5B9696D1C24F44074A2
:1004B000761E0E9888478246002E0CDD2B2804D02D
:1004C000BAF12D0F07D144F48074B9696D1C0E98F0
:1004D00088478246761EE00501D52D2100E02B21BC
:1004E00008F8011BCDF82C8021E00DF12901761EC2
:1004F00044F4007488450CD2AAF1300010F0FF00DB
:1005000088F8000002D10B99884509D908F1010843
:1005100006E0E00501D5244801E042F20F70814673
:10052000B9696D1C0E98884782460F980560002EA9
:1005300004DD504602F0C0FD0028D6D1F9690E98BE
:100540008847FF208BF8000088F800000020069004
:1005500007904B466A4608A906A8FFF777FEA00554
:1005600002D46FF001002AE714F0240F0AD0E0074C
:1005700014D1DDE906123868031D3B600068C0E94C
:1005800000120BE0DDE9060100F012FB0146E00776
:1005900004D13868021D3A600068016028460EE701
:1005A000000014400000F03FF1D8FFFF2DE9FE4F9E
:1005B000804681EA0300C00F0C46009021F0004104
:1005C00023F00045B8EB0200A94105D24046214680
:1005D00090461C460B46024623F00040104347D08D
:1005E000270DC7F30A00C3F30A510290401A019085
:1005F00040286BDAC3F3130040F4801B0098924646
:1006000020B10023D2EB030A63EB0B0B0198594690
:10061000C0F14002504600F014F906460D4650461F
:100620005946019A00F01CF910EB080061410024C2
:1006300087EA115284EAE7731A4340D0009A62B302
:10064000019A012A4FEA075215DC001B61EB0201F7
:100650004FF0004202EA0752CDE90042001C41F58A
:10066000801132462B4600F050F903B0BDE8F08F00
:1006700040462146F9E7001B61EB0201001C41F5F1
:10068000801300185B412018A2F5001747EB030107
:1006900040EAD570B6196D4111E06D084FEA360693
:1006A00045EAC0754FEA0752001B61EB0201001CCE
:1006B00041F5801149084FEA300000195141324696
:1006C0002B4603B0BDE8F04F00F010B900980122AE
:1006D00040000023D0EB020263EBE0730098214658
:1006E0004FEAE074B8EB000061EB0401E9E783F046
:1006F00000435BE781F0004158E70EB540F233411B
:1007000002910021CDE900110A460B4600F0FDF8E8
:1007100003B000BD70B5C1F30A5201F000450024DA
:10072000C1F3130140F2FF3341F480119A4201DA20
:10073000002070BD40F233439A42A2F2334203DC00
:100740005242FFF711FD00E090402C43F1D04042AF
:1007500070BD000030B5041E71F1000404DB4FF0E1
:100760000044404264EB0101141E73F1000405DBF8
:100770001C464FF00043524263EB04038B4208BF18
:10078000824230BD30B5041E71F1000404DB4FF02D
:100790000044404264EB0101141E73F1000405DBC8
:1007A0001C464FF00043524263EB0403994208BFDA
:1007B000904230BD30B50B46014600202022012476
:1007C00009E021FA02F59D4205D303FA02F5491B1F
:1007D00004FA02F52844151EA2F10102F1DC30BD35
:1007E0002DE9F05F0546002092469B468846064666
:1007F000814640241BE02846414647462246FFF7F3
:10080000B3FC53465A46C01A914110D311461846BC
:10081000224600F016F82D1A67EB01084F462246D3
:100820000120002100F00DF817EB00094E41201EB9
:10083000A4F10104DFDC484631462A464346BDE8C0
:10084000F09F202A04DB203A00FA02F100207047D2
:100850009140C2F1200320FA03F3194390407047FE
:10086000202A06DBCB17203A41FA02F043EAE07374
:1008700006E041FA02F3D040C2F120029140084361
:100880001946704702681144137801601846704792
:10089000D16004495161044911620021116111467E
:1008A00000F0BAB9850800080D0C0008426842B192
:1008B000016811F8013B23B1521EC0E9001218462D
:1008C00070470121C160881E704742685AB1C368F1
:1008D000016843B983688B4205D0491E521CC0E9A8
:1008E0000012002070474FF0FF30704710B5141E03
:1008F00073F1000408DA401C41F1000192185B41D9
:100900001A4301D120F0010010BD2DE9F04D9246AF
:100910009B4611B1B1FA81F202E0B0FA80F22032C6
:100920009046FFF78EFF04460F4640EA0A0041EA70
:100930000B0153465A46084313D0114653EA0100AF
:1009400019D0C8F140025046FFF70EFC05460E468E
:10095000504659464246FFF774FF084305D0012030
:1009600004E020463946BDE8F08D0020054346EA04
:10097000E0762C4337430A986305E40AA0EB0800AD
:100980000022FD0A44EA47540A3002D500200146FD
:10099000E9E7010510196941DDE9084500196941D8
:1009A000BDE8F04DA2E72DE9FE4F81EA030404F013
:1009B000004421F0004100944FF0000B23F000436D
:1009C00050EA01045ED052EA03045BD0C3F30A5438
:1009D000C1F30A552C44A4F2F3340194A0FB025451
:1009E000C1F3130141F48011C3F3130343F48013E3
:1009F00001FB024400FB034E840A970A44EA815437
:100A000047EA8357A4FB076802958D0A05FB078513
:100A10004FEA932C04FB0C542705029D4FEA06581D
:100A200047EA1637B5EB08056EEB070C870E920EFA
:100A300047EA811742EA8312A7FB0201B6EB0B01DA
:100A400064EB00042B0D43EA0C335E1844EB1C509E
:100A5000DA465146E7FB0201C5F313044FEA0B33B4
:100A600043EA14534FEA0432019C43EA0603A4F11B
:100A70000C040294009CCDE900B4FFF746FF03B0DC
:100A8000BDE8F08F00200146F9E72DE9F04D81EA3D
:100A9000030404F0004B21F0004514464FF0000A17
:100AA00023F0004150EA050220D054EA01021DD093
:100AB000C5F30A570246C5F31303C1F31300C1F38C
:100AC0000A5640F4801543F48013A7EB0608101B68
:100AD000D64608F2FD3873EB050002D308F1010891
:100AE00001E092185B41B8F1000F03DA00200146E3
:100AF000BDE8F08D00204FF48011064684460EE0DC
:100B0000171B73EB050705D3121B63EB05030643A5
:100B10004CEA010C49084FEA300092185B4150EA58
:100B20000107EDD152EA030012D082EA040083EA01
:100B30000501084305D0101BAB4106D2012200235A
:100B400006E000224FF0004302E06FF00102531074
:100B50001AEB06004CEB085110EB0A0041EB0B01BD
:100B6000BDE8F04DFFF7C2BE0EB540F2334202922F
:100B70000022CDE900221346FFF7C7FE03B000BDF7
:100B8000C1F30A52C1F3130140F2FF3341F4801163
:100B90009A4202DA00200146704740F233439A42FB
:100BA000A2F2334202DC5242FFF7DEBAFFF749BE3F
:100BB00001F0004330B421F0004150EA010206D0B8
:100BC0000A0DA2F56072C1F31301002A02DC30BCE9
:100BD00000207047440F44EAC104C100E01830BC53
:100BE00000EBC25000F0AEB9064C074D06E0E068DD
:100BF00040F0010394E8070098471034AC42F6D364
:100C0000FFF79AFA6462000884620008C0B24FF4E9
:100C1000F05100F0CFB900002DE9F34F8BB04FF049
:100C2000000801F10C000C464FF0010B46460DF197
:100C3000080A01906269012101989047051E2DD094
:100C4000252D2CD0216A8847C0B162690121019805
:100C50009047216A88470028F7D1411E62690198B0
:100C6000904700E0761CA1690B988847216A884765
:100C70000028F7D1E1690B988847DBE7A1690B9859
:100C800088470746A84201D1761CD3E7E1690B9853
:100C900088477F1C02D1B8F1000F6FD046E10027D2
:100CA00062693D463946019890472A2804D1626915
:100CB0000121019890470125DFF8849262690121A2
:100CC00001989047A0F130010A290AD24F45E5DC8E
:100CD00007EB870100EB4107303FDFD445F01005FB
:100CE000ECE7E90601D46FF000476C280AD04C28E5
:100CF00014D0682815D06A280DD074281CD07A2802
:100D00001AD01DE062690121019890476C2802D039
:100D100045F0040514E045F002050DE045F020051E
:100D20000AE06269012101989047682802D045F0E5
:100D3000080505E045F400656269012101989047C6
:100D4000C4E9015765283DD019DC58287AD00CDC5D
:100D5000452837D004DC252826D0412831D131E080
:100D600046282FD047282CD12CE05B2877D061284B
:100D700028D063287CD0642823D15AE0D0E06F28A3
:100D800048D008DC66281DD067281BD0692821D0F0
:100D90006E2816D127E0702845D0732868D07528B2
:100DA00047D078280DD14DE0A1690B9888470546BA
:100DB00025283FF469AFE1690B9888476D1C3FF423
:100DC0006AAFB3E023466A466FF001000B99FFF764
:100DD000D1FA9EE045F040006060A80723464FF03E
:100DE000000236D43EE0E8077FF447AF2068011DDB
:100DF00021600068290501D506701BE7290701D588
:100E0000068017E7A90703D5F117C0E9006111E7CC
:100E100006600FE745F040006060A80723464FF0EA
:100E2000080216D41EE040F60E0125EA01006060BB
:100E300016E045F040006060A80723464FF00A0224
:100E400007D40FE045F040006060A80708D52346AE
:100E500010226FF001000B99AFF3008059E007E01A
:100E6000234610226FF001000B99AFF3008050E091
:100E70004FF000094F464B46632802D05B2806D04E
:100E800040E0E80601D40120A06001273AE0626951
:100E90000121019890475E2805D14FF00109626950
:100EA000494601989047216939B900210A465346BD
:100EB00043F82120491C0829FADBB0B3216969B93C
:100EC000C11700EBD16253110AEB830122F01F021C
:100ED000821A01200B68904003430B606269012174
:100EE000019890475D28E8D1B9F1000F09D00020A2
:100EF000514651F82020D24341F82020401C0828B8
:100F0000F7DB02AB224600976FF001000B99AFF3BD
:100F1000008000280CDA401C08D1BBF1000F05D07E
:100F20004FF0FF300DB0BDE8F08FFFE74046F9E726
:100F3000E90701D108F1010806444FF0000B79E6FA
:100F4000CCCCCC0C0029A8BF7047401C490008BF7E
:100F500020F00100704710B4B0FA80FC00FA0CF0E9
:100F600050EA010404BF10BC704749B1CCF1200421
:100F700021FA04F411FA0CF118BF012121430843AE
:100F8000A3EB0C01CB1D4FEA00614FEA102042BFDA
:100F9000002010BC704700EBC35010440029A4BFD0
:100FA00010BC7047401C490008BF20F0010010BC75
:100FB000704700007F2801D9002208E0064A02EBB2
:100FC0005002C007127800D1120902F00F0201206E
:100FD000904008407047000024620008FEE70000CF
:100FE00070B516480024416821F4704141604168A1
:100FF00041F400414160124D04E0641CE4B2012060
:1010000002F05AFDD5F82C0110B1642CF5D30DE097
:10101000642C0BD2002404E0641CE4B2012002F032
:101020004BFDD5F82C0118B1642C04D3012070BD00
:10103000642CF1D3FAE7002070BD000000200140CD
:10104000000024420E4800B5816985B041F48071EA
:1010500081618069694600F4807004904FF40060FB
:10106000009001200190029003200390054800F0B9
:1010700031F900F065F8FFF7B3FF05B000BD0000DF
:10108000001002400020014070B50024104D04E023
:10109000641CE4B2012002F00FFDD5F82C0108B168
:1010A000642CF5D3002404E0641CE4B2012002F0B7
:1010B00003FDD5F82C0108B9642CF5D3282002F0E3
:1010C000FBFCD5F82C01002800D0012070BD0000E9
:1010D0000000244270B5002004464006050EFFF7CC
:1010E000D3FF641C2843E4B2082CF6D370BD2DE96D
:1010F000FC410D46064600F023F8FFF771FF10B1E2
:101100000120BDE8FC8100246F46FFF7E3FF38555E
:10111000641CE4B2052CF8D39DF800109DF8010082
:101120009DF803300A189DF8020003441A449DF804
:1011300004309A4201D1297030700020E1E70000AC
:101140000C4810B5416821F470414160416841F498
:1011500040514160084C0020C4F8AC01142004F553
:10116000D67402F09BFC01202060BDE810401E20D8
:1011700002F0A2BC002001400000244270477047EA
:101180002DE9F05F90F821100024022903D00421FA
:101190008163012485E001680A6822F00E020A607A
:1011A00001680A6822F001020A603F4E3E4FB21504
:1011B000DFF8F4C0DFF8F090DFF8ECA0DFF8E8B07B
:1011C000DFF8E4E00168783F13011502ACF1640C2C
:1011D000A9F15009AAF13C0AABF1280BAEF1140EAB
:1011E0004FF48018B14227D9B9420ED0614512D0D0
:1011F00049451DD0514518D0594518D0714501D1E8
:10120000424615E0294EB14201D1012210E0274E9D
:101210001436B14201D110220AE0244E2836B142E0
:1012200006D0224A3C32914201D11A4600E02A46B9
:101230001E49091F0A602BE0B94213D0614517D03F
:10124000494522D051451DD059451DD0714501D188
:1012500042461AE0B14202D14FF0807215E0134EBF
:10126000B14201D1012210E0104E1436B14201D139
:1012700010220AE00D4E2836B14206D00B4A3C320D
:10128000914201D11A4600E02A46074980394A6056
:10129000012180F82110002180F82010416B01B15C
:1012A00088472046BDE8F09F8000024008040240C5
:1012B00070B5044600F014F90546601C02D00448DD
:1012C0000078044400F00CF9401BA042FAD370BD32
:1012D000080000202DE9F84FDFF8C891002409F13B
:1012E000040A0AF1040B23460F270BF1040ED1E088
:1012F0000125A54006EA0502AA4276D1DFF8A8C179
:101300004E68A6EB0C0866452BD00DDC032E34D0BE
:1013100005DC36B3012E19D0022E2FD11BE0112E81
:1013200016D0122E2AD119E0B8F5881F19D006DC84
:10133000B8F5803F15D0B8F5801F1FD111E0B8F582
:10134000001F0ED0B8F5041F18D10AE0CB6815E0D5
:10135000CB681B1D12E0CB6808330FE0CB680C3361
:101360000CE08B682BB1012B4FF0080303D04561D3
:1013700004E0042302E0056100E00023FF2A01D815
:10138000064601E000F104064FEA840501D9A5F103
:101390002005D6F8008007FA05FC28EA0C0803FAB5
:1013A00005F548EA0508C6F800804D68ED0070D5DF
:1013B0003E4DAE6946F00106AE61AD6924F003060C
:1013C00005F0010500953A4D06EB050CDCF80850D8
:1013D000A607360F07FA06F825EA0805DFF8D480D5
:1013E000404503D14FF0000825E052E0DFF8C88007
:1013F000404502D14FF001081DE0DFF8C0804045B4
:1014000002D14FF0020816E0DFF8B480404502D167
:101410004FF003080FE0DFF8AC80404502D14FF0F9
:10142000040808E0DFF8A080404502D14FF005082D
:1014300001E04FF0060808FA06F848EA0508CCF87B
:1014400008804D68D9F80060ED034D4601D516437C
:1014500000E096432E604D68DAF80060AD03554613
:1014600001D5164300E096432E604D68DBF800601E
:10147000ED025D4601D5164300E096432E604D68AF
:10148000DEF80060AD02754601D5164300E09643D4
:101490002E60641C0A681646E2407FF429AFBDE85E
:1014A000F88F0000000401400000111000100240FD
:1014B0000000014000080140000C01400010014004
:1014C0000014014000180140001C014080680840E1
:1014D00000D0012070470AB1016170470904FBE7A1
:1014E00001488068704700000800002002488168B9
:1014F000027811448160704708000020074810B549
:10150000016841F010010160032000F075F800202F
:1015100000F006F800F024F8002010BD0020024082
:1015200070B50D4D04464FF47A712878B1FBF0F098
:101530000A490968B1FBF0F000F0F8FA48B9102C3C
:1015400007D200222146501E00F036F800206C60C1
:1015500070BD012070BD00000800002014000020B4
:101560000C4808B5816941F001018161816901F090
:1015700001010091C16941F08051C161C06900F071
:10158000805000900448416821F0E06141F0007112
:10159000416008BD0010024000000140002809DB46
:1015A00000F01F02012191404009800000F1E0207D
:1015B000C0F8001170470000F0B40E4B1B680C46D9
:1015C000C3F30223C3F10705042D00D90425191D17
:1015D000072901D2002300E0DB1E012606FA05F1EF
:1015E000491E214099409E40761E16403143F0BC72
:1015F00001F02ABC0CED00E0064900F00702086883
:101600004FF6FF03184040EA0220034A10430860E7
:10161000704700000CED00E00000FA052DE9F047EE
:101620000F46050061D0434E306800F00700B84215
:1016300009D2306820F0070038433060306800F08D
:101640000700B84251D128683B4C810712D54007AA
:1016500003D5606840F4E06060602878000703D537
:10166000606840F4605060606068A96820F0F00035
:10167000084360602878C00728D06868012810D027
:101680002168022810D0890700292EDA616821F02C
:10169000030101436160FFF723FF804641F288396F
:1016A0000DE021688903EFE78901EDE7FFF718FFF7
:1016B000A0EB0801494502D90320BDE8F087606826
:1016C000696800F00C00B0EB810FEFD1306800F0DA
:1016D0000700B8420BD9306820F00700384330606B
:1016E000306800F00700B84201D00120E5E7287813
:1016F000400705D56068E96820F4E0600843606051
:101700002878000706D56068296920F4605040EA0F
:10171000C100606000F038F86168084AC1F3031145
:10172000515CC8400649086006480068FFF7F8FEAB
:101730000020C2E70020024000100240746100084F
:10174000140000200C000020044805490068496886
:10175000044AC1F30221515CC840704714000020C4
:101760000010024084610008044805490068496887
:10177000044AC1F3C221515CC840704714000020E4
:10178000001002408461000812A185B00FC98DE8E5
:101790000F0014A0144A006804905168134801F027
:1017A0000C03042B10D0082B0ED1C1F38343C903C3
:1017B0001DF803000AD5516804AAC1F34041515CE9
:1017C0000A4A5043B0FBF1F005B07047084948435E
:1017D000FAE7000002030405060708090A0B0C0DCE
:1017E0000E0F1010010200000010024000127A00DB
:1017F00000093D002DE9F84F040070D02078C04D5D
:10180000C00749D06868C0F38100012807D0686824
:10181000C0F38100022809D16868C00306D5286892
:10182000800339D560680028E7D035E06068B0F5FE
:10183000803F0BD010B1B0F5A02F11D0286820F454
:1018400080302860286820F4802002E0286840F476
:1018500080302860606890B1FFF742FE06460AE0DB
:10186000286840F480202860F0E700BFFFF738FECA
:10187000801B642873D828688003F7D50CE0FFF735
:101880002FFE064605E000BFFFF72AFE801B6428F6
:10189000F0D828688003F7D420789A4E80074FF05C
:1018A00001094FF0000839D5686810F00C0F07D017
:1018B0006868C0F38100022809D16868C00306D4B3
:1018C0002868800714D52069012808D110E0206914
:1018D000B0B1C6F80090FFF703FE074605E00AE145
:1018E000FFF7FEFDC01B0228C4D828688007F7D583
:1018F0002868616920F0F80040EAC10028600DE026
:10190000C6F80080FFF7ECFD074604E0FFF7E8FDAE
:10191000C01B022823D828688007F7D42078000746
:101920002CD57948A169D9B1C0F80090FFF7D8FD4E
:10193000074604E0FFF7D4FDC01B02280FD8686AF1
:101940008007F7D571484FF4FA510068B0FBF1F009
:10195000009000BF0098411E0091FAD20EE080E096
:10196000C0F80080FFF7BCFD074604E0FFF7B8FDB4
:10197000C01B022875D8686A8007F7D42078400712
:1019800060D5E8690027C00008D4E86940F08050BD
:10199000E861E869012700F0805000905C48016828
:1019A000C90513D40168834641F480710160FFF7D3
:1019B00097FD824606E000BFFFF792FDA0EB0A000C
:1019C00064284ED8DBF80000C005F5D5E068012892
:1019D0000AD008B1052813D0286A20F00100286237
:1019E000286A20F0040002E0286A40F00100286222
:1019F000E06841F2883B98B1FFF772FD82460BE048
:101A0000286A40F004002862EEE700BFFFF768FD97
:101A1000A0EB0A0159455AD8286A8007F6D50CE090
:101A2000FFF75EFD824605E0FFF75AFDA0EB0A01D5
:101A300059454CD8286A8007F6D41FB1E86920F0D0
:101A40008050E861E06988B36968C1F381010229C7
:101A500044D00228C6F8608004D0FFF741FD044658
:101A600038E034E0FFF73CFD074604E0FFF738FDBF
:101A7000C01B02282BD828688001F7D4206AB0F553
:101A8000803F05D16868A16820F400300843686091
:101A9000D4E908010843696821F4741108436860B7
:101AA000C6F86090FFF71CFD044606E025E000BF85
:101AB000FFF716FD001B022809D828688001F7D51A
:101AC0001BE000BFFFF70CFD001B022802D903201A
:101AD000BDE8F88F28688001F4D40EE00128F7D023
:101AE0006868226A00F48031914204D1616A00F48E
:101AF0007010884201D00120EAE70020E8E70000EA
:101B000000100240000042428004424214000020C3
:101B1000007000404FF0E0210428086903D020F055
:101B200004000861704740F00400FAE710B5401E59
:101B3000B0F1807F01D3012010BD4FF0E02460613F
:101B40000F21601701F080F90020A06107202061BB
:101B5000002010BD7047704770B590F83C20012AF6
:101B600019D0012400F83C4F0222427050F83C3C4E
:101B70005A689D6822F070060A684968324325F069
:101B8000800529435A6050F83C2C91604470002134
:101B90000170084670BD022070BD10B5040003D06E
:101BA00094F83D0010B107E0012010BD002084F83A
:101BB0003C00204600F00CF8022084F83D00211D76
:101BC000206800F099FF012084F83D00002010BD3E
:101BD00008B50068B0F1804F12D10A48C16941F0E0
:101BE0000101C161C069002200F0010000900121E3
:101BF0001C20FFF7E1FCBDE808401C20FFF7CEBC2D
:101C000008BD0000001002400168CA6842F00102ED
:101C1000CA600068816801F00701062903D00168E5
:101C200041F0010101600020704770B5044690F852
:101C30003C00012817D0012584F83C50022084F88C
:101C40003D002068826822F0770222F47F428260A1
:101C50000868502830D00DDC20284DD005DC98B322
:101C600010283BD148E0022070BD302844D04028E5
:101C700034D139E0602828D0702806D0B0F5805FD4
:101C80002CD0B0F5005F29D10AE0CB68D1E9012161
:101C9000206800F077FF2068816841F0770109E053
:101CA000CB68D1E90121206800F06CFF20688168D1
:101CB00041F48041816011E0CA684968206800F001
:101CC00073FF5021206807E016E0CA684968206861
:101CD00000F07BFF6021206800F05EFF84F83D503B
:101CE000002084F83C0070BDCA684968206800F094
:101CF0005BFF40212068EFE7226801461046EBE7D2
:101D0000704770B50446006801694FF00005C9438B
:101D1000890715D4C168C943890711D4E91E016137
:101D200001202077206880698007204602D0FFF7D5
:101D3000E7FF04E000F098F8204600F096F82577D9
:101D400020680169C943490717D4C168C9434907D5
:101D500013D46FF0040101610220207720688069AC
:101D600010F4407F204602D0FFF7CAFF04E000F0E5
:101D70007BF8204600F079F8257720680169C9438F
:101D8000090716D4C168C943090712D46FF00801C6
:101D90000161042020772068C0698007204602D0B6
:101DA000FFF7AEFF04E000F05FF8204600F05DF8BA
:101DB000257720680169C943C90617D4C168C9439A
:101DC000C90613D46FF01001016108202077206844
:101DD000C06910F4407F204602D0FFF791FF04E075
:101DE00000F042F8204600F040F8257720680169AD
:101DF000C943C90708D1C168C943C90704D1891EAD
:101E00000161204600F032F820680169C9430906E3
:101E100009D4C168C943090605D46FF08001016186
:101E20002046FFF797FE20680169C943490609D497
:101E3000C168C943490605D46FF0400101612046DD
:101E400000F03CF820680169C94389060BD4C168D9
:101E5000C943890607D46FF0200101612046BDE81F
:101E60007040FFF778BE70BD7047704710B50068CE
:101E7000B0F1804F1BD10E480E4C00220188C1F3F7
:101E80000E0341F40041E25401800B48911E0268A8
:101E900011610068016A41F21112114207D1016A11
:101EA0009210114203D1016821F00101016010BDBF
:101EB0000400002084000020440000207047704788
:101EC00070B5026804461068D168536910F00F0FAE
:101ED00050D003F0010501F4907635435DD0C20780
:101EE00005D0CA0503D5E26B42F00102E263420766
:101EF00005D5DA0703D0E26B42F00202E263820703
:101F000005D5DA0703D0E26B42F00402E263020770
:101F100005D5DA0703D0E26B42F00802E263E26B18
:101F2000002A33D0800604D5880602D5204600F06A
:101F300074FE20684069E16BC0F38010090700D48B
:101F400028B3204600F05BFE2068416949061AD597
:101F5000416921F040014161606BA0B11B494163BF
:101F6000606BFFF70DF9002810D0606B416BBDE886
:101F700070400847830610D58B060ED52046BDE875
:101F8000704000F04ABE2046FFF799FF70BD204622
:101F9000FFF795FF0020E06370BD030606D50B0632
:101FA00004D52046BDE8704000F0DEBE4006F3D503
:101FB0004806F1D5D168204621F04001D1602021AA
:101FC00084F8391000F03BF970BD0000EF2B0008D9
:101FD00070B5040004D094F83900002510B106E073
:101FE000012070BD84F83850204600F023F82420EA
:101FF00084F839002068C16821F40051C16020468E
:1020000000F056FE2068016921F4904101612068CA
:10201000416921F02A0141612068C16841F4005101
:10202000C160E563202084F8390084F83A0000207C
:1020300070BD0000F0B585B00024009401940294B6
:102040000394054603683E4F02203E4903224602A0
:10205000BB4229D18B6943F480438B618B6903F4C4
:10206000804304938B6943F004038B618969364D87
:1020700001F0040104910102CDE9001003926946C8
:102080002846FFF727F9CDE90064694628460294FF
:10209000FFF720F9002203212520FFF78DFA2520E4
:1020A000FFF77CFA05B0F0BD284FBB42FAD1CB69EF
:1020B00043F48023CB61CB6903F4802304938B69C1
:1020C00043F008038B61896901F00801CDE9032120
:1020D000CDE900601E4E69463046FFF7FBF8F0146C
:1020E000CDE90004694630460294FFF7F3F8002278
:1020F00002212720FFF760FA2720FFF74FFA286810
:10210000C16841F02001C1602720FFF747FA002293
:1021100002212720FFF750FA00F02AFC0D484480E6
:102120000D480068016A41F211121142BAD1016AE8
:1021300092101142B6D1016821F001010160B1E7AE
:1021400000380140001002400008014000480040F3
:10215000000C0140020000204400002090F83A30BA
:10216000202B22D1F9B1F2B190F83830012B1CD0DC
:1021700081628285C2850021C163222280F83A20D3
:1021800080F838100168CA6842F48072CA60016839
:102190004A6942F001024A610068C16841F02001C9
:1021A000C160002070470120704702207047000086
:1021B00010B500680E49884215D10E4948880204BE
:1021C00011D4B0F5487F0FD20B4A00231468636224
:1021D00020B91268136843F001031360074B0A78B3
:1021E0001A54401C488010BD40F40040FAE700003B
:1021F000004800400200002044000020840000202D
:1022000090F83930202B18D1A9B1A2B190F838300C
:10221000012B12D001628284C2840021C163212279
:1022200080F8392080F838100068C16841F08001DA
:10223000C16000207047012070470220704770473E
:10224000FEE7000070B5BAB03DA002F0AFFC582226
:10225000414901A8FDF798FF404C4FF448714048B0
:10226000A180FDF7AAFF3F4D3FA242A1284600F002
:10227000C5FD05F1800649A33BA24BA1304600F005
:10228000BDFD3046FDF7B6FF607044A0009036A358
:1022900035A247A117A800F0B1FD17A8FDF7AAFFC6
:1022A0000146202000904BA305F5807217A802F08C
:1022B000D4FC05F58070FDF79DFFA07029464EA067
:1022C00002F074FC314650A002F070FC05F58071FC
:1022D00051A002F06BFC03208DF80C007820ADF8C3
:1022E0001C0001208DF81E0005F5807014900495E7
:1022F000119601AAA1881A4800F0D2F9024618499D
:10230000032002F03BFC6420FEF7D2FF464AA1887E
:10231000134800F09DF902280BD0A388104A37A972
:1023200038A800F017F90128F0D19DF8DC0000284A
:10233000ECD13EA002F03AFC3AB0002070BD0000A3
:10234000BDF8C8EBC1ACBDD3D4C6B7FECEF1C6F75D
:10235000BAAFCAFD0D0A00008C6100081C00002005
:10236000A8070020C80A0020536D6172744C4544D0
:102370005F30310025737C7365637572656D6F64C2
:10238000653D332C7369676E6D6574686F643D6875
:102390006D6163736861317C0000000061317730EA
:1023A000584A62587768300025732625730000006C
:1023B000636C69656E7449642573646576696365E9
:1023C0004E616D65257370726F647563744B6579CA
:1023D0002573000075774D4A594F47536F41504E52
:1023E000645A424F6938687944583271426E485194
:1023F0005967476F00000000436C69656E7449645B
:102400003A25730D0A000000557365726E616D65A3
:102410003A25730D0A00000050617373776F726480
:102420003A25730D0A000000494B0008436F6E6E99
:102430006563742053756363657373210D0A00002F
:102440002DE9F0478046002488B089462546084695
:10245000FDF7D0FE82464FF44877224A394622489B
:1024600000F0F6F8214E05282DD03078401CC0B27F
:102470003070032803D934701DA002F097FB394651
:102480001948FDF79AFECDE9028504AE0094019447
:1024900086E82006022300223946134800F0C7F9D7
:1024A00005461848394604801748FDF786FE2A4637
:1024B0000D49032002F062FB484600F0D5FC08B04D
:1024C0000020BDE8F0878DF804408DF80840ADF895
:1024D0000C40054B03AA02A901A8009700F016F8CA
:1024E0003470CCE7494B0008A80700201C000020EE
:1024F000536F6D657468696E672057726F6E670DF4
:102500000A00000004000020840000202DE9FC41A6
:10251000074615460E4600246846009302F0CEFAA0
:1025200060F30704C4F3C00030702009387001A9BB
:10253000009800F059F80099019A014400910A446A
:10254000511A022904DB684602F0BEFA28800120F5
:10255000BDE8FC812DE9FC41074600240E462546D6
:102560006846009202F0AAFA0146204661F307008D
:102570000009022819D101A9009800F035F8009946
:1025800005460844019900900144081A02280CDB12
:10259000684602F093FA60F3070404F00100387013
:1025A000684602F08BFA307001252846BDE8FC81B0
:1025B000F8B5012500240E4607460C60641C042C67
:1025C0000FDC01216846B84701280AD19DF80000B8
:1025D000316800F07F0202FB0511ED013160000659
:1025E000ECD42046F8BD0000024A10600248FFF714
:1025F000DFBF0000180000208D38000810B503462A
:102600000020CA1701EB526424F07F02891ACAB273
:10261000E111002902DD00BF42F080021A5400F1EE
:102620000100EEDC10BD0000401C802801DA401CD7
:102630007047B0F5804F01DA801C7047034988422B
:1026400001DAC01C7047001D70470000FFFF1F002B
:102650002DE9F84300248846164605464FF0FF371B
:1026600001210094B047012816D169463046FFF792
:102670009FFF681C0099FFF7C1FF0099401C0B18D1
:10268000434509DC21B12844B0470099884203D171
:10269000287860F3070427093846BDE8F88300006E
:1026A0002DE9F84307460090884614460025104659
:1026B00000F082F88146FFF7B7FF404502DDA81E13
:1026C000BDE8F8832E46314666F3070168461031AF
:1026D00003F020FD49460098FFF790FF0099084459
:1026E0000090207A04281DD02FA1684603F0FEFC3C
:1026F0000321684603F00EFDA07E66F3070560F334
:102700004105E07E08B145F00405680707D594F857
:102710003D0060F3C40594F83C0060F34515206C5F
:1027200040B905E022A1684603F0E0FC0421E0E79F
:10273000A06C08B145F08005E06C08B9606D08B187
:1027400045F040052946684603F0E4FC218B6846C5
:1027500003F0E6FC04F10C0168460EC903F0EFFC3F
:10276000E07E68B12434684694E80E00243C03F00F
:10277000E6FC3034684694E80E00303C03F0DFFCA1
:10278000280605D504F1400168460EC903F0D7FCC0
:10279000680605D54C34684694E80E0003F0CFFC7B
:1027A0000098C01B8CE700004D5149736470000015
:1027B0004D5154540000000070B50446007A0025C5
:1027C000032802D0042802D002E00C2500E00A25EC
:1027D00004F10C0007C800F07CF80544E07EAD1C55
:1027E00078B1243494E80700243C00F072F83034C7
:1027F000064694E80700303C00F06BF8304405448E
:102800002D1D206C08B9A16C29B1D4E9111200F07A
:1028100060F80544AD1CE06C08B9616D29B1D4E9DC
:10282000141200F056F80544AD1C284670BD2DE981
:10283000FC5F1C46129ECDE90060DDF838B0904682
:10284000DDF830A0DDE90F238946074659462046CA
:1028500000F030F80546FFF7E7FE484503DD6FF06E
:102860000100BDE8FC9F302168F3C30164F342011D
:102870006AF3000101A803F04DFC29460198FFF717
:10288000BDFE019908440190DDE90F23594601A8D6
:1028900003F055FC002C03DD01A80D9903F040FC6A
:1028A000324611990198FDF76FFC01983044019070
:1028B000C01BD6E770B50E46114604461A46304690
:1028C000049D00F006F82844801C002C00DD801CCC
:1028D00070BD10B510B1FDF78DFC0146084610BD66
:1028E00030B585B0002420480094019402940394EC
:1028F000816941F040018161816901F040010491E9
:10290000816941F010018161816901F01001049138
:10291000816941F008018161816901F00801049138
:10292000816941F0040181618069104D00F004006B
:102930000490012220212846FEF7CDFD0820CDE994
:1029400000040124694628460294FEF7C3FC2020B7
:10295000CDE900040220CDE9024069462846FEF791
:10296000B9FC05B030BD0000001002400018014065
:1029700010B586B000241748009401940294039483
:1029800004944FF080410594016041F61F41C0E975
:10299000011440F2E731C0E903148461FFF7FDF848
:1029A00008B1FEF7ECFB4FF48050009069460948EF
:1029B000FFF73BF908B1FEF7E2FB049404A90548D0
:1029C0000594FFF7C9F8002801D0FEF7D8FB06B040
:1029D00010BD0000440000200C4810B50A490160F9
:1029E0004FF4E1314160002181600C22C160C0E9F7
:1029F00004128161C161FFF7EBFA002803D0BDE842
:102A00001040FEF7BCBB10BD003801402807002075
:102A10000C4810B50A4901604FF4E13141600021D2
:102A200081600C22C160C0E904128161C161FFF7BD
:102A3000CFFA002803D0BDE81040FEF7A0BB10BDC0
:102A40000048004068070020FEE770477047704765
:102A5000FEF74CBD30B58FB028216846FDF7ADFBC1
:102A600014210AA8FDF7A9FB01210804CDE90010F3
:102A70000024029402250491CDE907504FF4E010A0
:102A800009906846FEF7B6FE0F20CDE90A056802F8
:102A9000CDE90C4002210AA80E94FEF7BFFD0FB04D
:102AA00030BD00000D48016841F00101016041683E
:102AB0000B4A1140416001680A4A114001600168F7
:102AC00021F480210160416821F4FE0141604FF44E
:102AD0001F0181600449C003086070470010024074
:102AE0000000FFF8FFFFF6FE08ED00E00148FFF7E9
:102AF00008B9000044000020F0B502681C4B1D4DD1
:102B00001D4E1E4F1E4C4FF0804C984209D0A042E3
:102B100007D0604505D0A84203D0B04201D0B842EA
:102B200004D122F0700E4A6842EA0E02984209D09F
:102B3000A04207D0604505D0A84203D0B04201D0E2
:102B4000B84203D122F44075CA682A434D6922F085
:102B500080022A4302608A68C2620A6882629842DE
:102B600001D0A04201D10969016301214161F0BD99
:102B7000002C01400004004000080040000C004010
:102B80000034014010B5846842EA032224F47F44F3
:102B90000A432243826010BD826822F070020A4319
:102BA00042F007018160704710B5036A046A24F09F
:102BB00001040462846924F0F00444EA021423F05E
:102BC0000A020A438461026210BD10B5036A23F051
:102BD000100303628369046A23F4704343EA0232F8
:102BE00024F0A00343EA01118261016210BD10B517
:102BF000406A0021C185C184FFF761F910BD0168F9
:102C0000CA6822F49072CA6001684A6922F001021F
:102C10004A61202180F83A10704710B590F83A10B8
:102C2000222901D0022010BD8168B1F5805F11D04A
:102C30000169002901681FD0496801F07F03816A9A
:102C40004A1C82620B70C18D491E0904090CC185A2
:102C500018D02BE00269816A002A0268526805D008
:102C6000D2B20A80816A491C8162ECE7C2F3080291
:102C70000A80816A891CF7E74A68816A4B1C836273
:102C80000A70E0E70168CA6822F02002CA600168A1
:102C9000CA6822F48072CA6001684A6922F001029F
:102CA0004A61202180F83A10FFF782FA002010BD17
:102CB0002DE9F041044600680169E26821F44051C1
:102CC000114301612169A0680843616908432168D3
:102CD000CA6841F20C639A430243CA6020684169A2
:102CE000A26921F44071114341611E4920686425A5
:102CF0003226884202D1FEF737FD01E0FEF724FDBF
:102D000000EBC00101EB001160686FF01807800054
:102D1000B1FBF0F2B2FBF5F2B1FBF0F37A4303EB57
:102D20008202B1FBF0F306EB0212B2FBF5F2B3FB49
:102D3000F5F302F0F00202EB0312B1FBF0F3B1FB8A
:102D4000F0F0B0FBF5F0784303EB800006EB0010E9
:102D5000B0FBF5F0216800F00F0010448860BDE87A
:102D6000F08100000038014090F83910212901D08D
:102D7000022070478168B1F5805F016A0BD04A1C60
:102D80000262026809785160C18C491E0904090C6D
:102D9000C1840ED017E009880268C1F308015160B0
:102DA00001690029016A02D0491C0162ECE7891C13
:102DB000FBE70168CA6822F08002CA600068C16847
:102DC00041F04001C1600020704700000148FFF75A
:102DD00077B800002807002010B50548FFF770F805
:102DE000BDE81040012203490148FFF7B7B90000D0
:102DF0006807002002000020FEE700000FB4084B27
:102E000010B504A902AA039800F05EF9044602A9CD
:102E1000002000F0F0FC204610BC5DF814FB000020
:102E2000F737000837B514460846064B6A46214670
:102E300000F04AF904466946002000F0DCFC204618
:102E40003EBD0000F73700080907090E002804DB23
:102E500000F1E02080F80014704700F00F0000F14E
:102E6000E02080F8141D704730B528B1144C031FC2
:102E7000002021680A4605E0084630BD9A4203D882
:102E800010465268002AF9D1002800D041680BD0C2
:102E90000468A3EB0005A54204D11B681C4403464B
:102EA000046002E0436000E023603AB11C68D51A78
:102EB000A54203D115682C441C6052685A6030BD8D
:102EC0003C0000202DE9F04782460F4C10480D4E83
:102ED0000E4F001B4FF0000820F007054FF00109CE
:102EE00000221146504601F041FA002802D1306814
:102EF00010B10020BDE8F0873C60C4E90058C6F876
:102F00000090EDE7400000204C0C00203C00002029
:102F10004814002002E008C8121F08C1002AFAD194
:102F200070477047002001E001C1121F002AFBD149
:102F3000704700002DE9FF5F82B00021DDE9043019
:102F4000020DDDF840B0034318D044F61050A2F251
:102F5000FF3242431514119801281FD0A5EB0B0036
:102F6000401C5FEA000A4FF000064E4FDFF8389130
:102F7000B046504615D5CAF1000413E0119801245B
:102F80004AA3012801D16FEA0B010298119AC0E906
:102F90000031C0E9024206B0BDE8F09FCBF100006D
:102FA000DFE704460021404A491842EB0450CDE9CE
:102FB000001012E0E00707D032463B464046494643
:102FC000FDF7F1FC8046894632463B4610461946DD
:102FD000FDF7E9FC06460F466410002CEAD1DDE956
:102FE0000401DDE90023BAF1000F06DAFDF7DBFC8E
:102FF00042464B46FDF7D7FC05E0FDF746FD42464D
:103000004B46FDF742FD04460E460022284BFDF7D5
:10301000B9FB03D84FF0FF30014607E00022254BF3
:1030200020463146FDF7C2FAFDF7AAFD102409E05B
:10303000002C0ADB0A220023FDF7D2FB039B30326F
:103040001A55641E50EA0102F2D1641C039AC4F1BD
:1030500011031444119A012A03D0012208430DD10F
:103060000AE0084304D000204FF0110B119072E7E2
:10307000A3EB0B056D1E0DE05B4504DD4FF0000278
:1030800005F1010504E003DA4FF00002A5F10105A6
:10309000002AECD002981199C0E90231C0E900453C
:1030A00079E70000000014400000F03F300000000D
:1030B0000000F0430000E03F30380A2801D2012030
:1030C00070470020704700002DE9FF4F95B09B46E8
:1030D0008946064600250FE2252877D10024274699
:1030E000F84A0121059400E0044316F8013F203B13
:1030F00001FA03F01042F7D130782A2811D06FF08E
:103100002F033078A0F13002092A16D8059A44F02E
:10311000020402EB820203EB42021044761C05908B
:10312000EFE759F8042B0592002A03DA504244F4E1
:103130000054059044F00204761C30782E2816D1F5
:1031400016F8010F44F004042A280DD06FF02F0266
:103150003078A0F13003092B09D807EB870302EB85
:103160004303C718761CF3E759F8047B761C3078C4
:103170006C280FD006DC4C2817D068280DD06A28A0
:1031800014D104E0742810D07A280FD10DE044F453
:1031900000140AE044F4801401E044F4401472780E
:1031A000824202D104F58014761C761C30786628A1
:1031B0000BD013DC582877D009DC002875D04528BF
:1031C000F6D04628F4D047281AD19DE118E06328AC
:1031D00035D0642879D0652812D195E1702873D054
:1031E00008DC6728F1D069286FD06E280DD06F28D1
:1031F00006D1B5E073282CD0752875D0782874D006
:103200005A46179990476D1C75E1C4F30250022885
:1032100009D003280DD0D9F8001004280DD00D6076
:1032200009F1040967E1D9F80010EA17C1E9005271
:10323000F6E7D9F800100D80F2E70D70F0E719F805
:10324000041B8DF8001000208DF80100EA460120D3
:1032500003E059F804AB4FF0FF3061074FF0000175
:1032600002D40DE008F101018846B9420FDA804529
:10327000F8DB1AF808100029F4D108E008F1010180
:1032800088468142FADB1AF808100029F6D1059821
:103290005B46A0EB080721463846179A00F094FADF
:1032A000284400EB080507E04DE029E10DE01AF89D
:1032B000010B5A4617999047B8F10108F7D25B46BF
:1032C00021463846179A13E142E00A220092C4F3DD
:1032D00002524FF0000A022A08D059F804CB032A00
:1032E0004FEAEC710AD00DE029E02AE009F107016C
:1032F00021F00702F2E802C1914609E00FFA8CFCC6
:103300004FEAEC71042A03D14FFA8CFC4FEAEC71BE
:10331000002907DA0A460021DCF1000C61EB02010A
:103320002D2202E0220504D52B228DF80420012253
:1033300003E0E20701D02022F7E7904659E00A2196
:1033400002E010220DE010214FF0000A00910BE086
:1033500010224FF0000A44F004040827009203E012
:1033600008224FF0000A0092C4F30252022A05D04C
:1033700059F804CB0021032A08D009E009F107011C
:1033800021F00702F2E802C1914605E01FFA8CFC29
:10339000042A01D10CF0FF0C4FF00008220728D5B9
:1033A000702806D0009B83F0100353EA0A0305D06F
:1033B0000EE040228DF80420012208E05CEA0102C0
:1033C00006D030228DF804208DF8050002229046A8
:1033D000009B83F0080353EA0A030AD15CEA010266
:1033E00001D1620705D530228DF804204FF0010885
:1033F0007F1E582804D034A003900EA802900DE040
:1034000036A0F9E753466046009AFDF7E9F984468D
:103410000398825C0298401E029002705CEA0100F0
:10342000F0D1029806A9081A00F1200A600702D517
:1034300024F4803400E00127574502DDA7EB0A00A1
:1034400000E0002000EB0A01009005984144401A7A
:103450000590E00306D45B462146179A059800F0D4
:10346000B3F90544002706E001A85A46C05D179944
:1034700090476D1C7F1C4745F6DBE0030CD55B468F
:103480002146179A059800F09FF9054404E0302082
:103490005A46179990476D1C0099481E00900029C4
:1034A000F5DC08E0029802995A460078491C02911E
:1034B000179990476D1CBAF10001AAF1010AF1DCDD
:1034C00065E10000092801003031323334353637E8
:1034D0003839616263646566000000003031323360
:1034E0003435363738394142434445460000000000
:1034F00000F058F90544761C307800287FF4ECADD4
:1035000019B02846BDE8F08F620700D4062709F1FC
:10351000070222F0070CFCE80223E14603F0004812
:103520005FEA080C02D00FF2702C0DE05FEA045C39
:1035300002D50FF2682C07E05FEAC47C02D00FF2DC
:10354000602C01E0AFF2700C4FF0FF3823F0004325
:10355000CDF850C065280CD006DC452809D0462897
:103560001DD047283DD13DE0662818D067287ED180
:1035700038E00021112F01DB112000E0781CCDE99B
:10358000000106A90EA8FFF7D5FCDDE90F010E9A90
:1035900003910021009207F1010A04914DE04FF0E0
:1035A00000400097CDE9011006A90EA8FFF7C2FC64
:1035B000DDE90F0203920E9B11990022DDF80CA0A9
:1035C0000093049211B9791C00EB010AB7EB0A00D1
:1035D00004D4C0F1FF3007F1010A0490AAEB070000
:1035E000019044E0012F00DA01270021112F01DDB5
:1035F000112000E03846CDE9000106A90EA8FFF72A
:1036000099FCDDE90F010E9A0391002104910092CB
:10361000BA4621070CD40399514500DA8A46BAF11B
:10362000010F05DD009AAAF10101515C302908D093
:10363000B84202DA10F1040F06DA0121CDE90110D7
:1036400015E0AAF10101E9E7002805DC049901442D
:103650000491AAEB000102E0411C514500DD8A46BD
:103660000499401A401C01904FF00040029020073E
:1036700004D40198504501DBCDF8048000208DF87A
:103680004F0002980DF14F07B0F1004F25D02B20CD
:103690000E9002984FF0020800280CDA4042029087
:1036A0002D200E9007E00A210298FDF783F83031B3
:1036B000029007F8011DB8F10001A8F10108F2DC41
:1036C00002980028EFD1791E0E980870307800F02B
:1036D000200040F0450007F8020D12A8C01B00F1C1
:1036E00007081498007800B1012000EB0A01019846
:1036F00001EBE07105984144401A401E0590E0033B
:1037000006D45B462146179A059800F05DF80544FB
:103710001498007818B15A46179990476D1CE00329
:1037200024D55B462146179A059800F04DF80544CC
:103730001CE00498002807DBDDE90301884203DD73
:103740000098405C179901E0179930205A4690473D
:10375000049805F10105401C04900198401E019059
:1037600004D12E205A46179990476D1CBAF10001DA
:10377000AAF1010ADDDC05E017F8010B5A4617999A
:1037800090476D1CB8F10001A8F10108F4DC5B461C
:103790002146179A0598ABE62D0000002B0000008B
:1037A000200000002DE9F041044600251E46174682
:1037B000880404D405E039462020B0476D1C641EFF
:1037C000F9D52846BDE8F0812DE9F04104460025F1
:1037D0001E469046C80301D5302700E02027880404
:1037E00004D505E041463846B0476D1C641EF9D546
:1037F0002846BDE8F0810A68531C0B6010707047C2
:1038000039B130B1826832B1536853B119604B603D
:103810000CE00020704781600020C1E9000107E052
:103820001A461368002BFBD111604A608068416022
:10383000012070472DE9F0415FEA000806981E4616
:1038400014460D461ED0EDB1E4B118B1E06840F465
:10385000007708E01946284600F0F0F8050011D07E
:10386000E06820F40077A089800503D4206A08B1BD
:1038700071688847E760214640462562BDE8F0410F
:10388000FFF7BEBF0020BDE8F081000030B5044660
:1038900006480023026803E012F8015B25705B1CF8
:1038A0008B42F9DB0260084630BD000018000020A2
:1038B00008B500230093024BFFF7BCFF08BD0000D2
:1038C0002C000020F8B50C4605461046194600F0BD
:1038D0002BF8064600200090064B3246214628462B
:1038E000FFF7A8FF0028304602D100F071F8002051
:1038F000F8BD00002C000020F8B505460C46104627
:1039000000F04EF8064600200090064B3246214655
:103910002846FFF78FFF0028304602D100F058F804
:103920000020F8BD2C00002070B505460E46124858
:1039300000F072F804001CD00820E060C4E90656CC
:103940000E4A0F4B28463146FCF71CFF02D86FF099
:1039500000400DE000220B4B28463146FCF7FAFEF2
:1039600002D84FF0004003E028463146FCF7D2FE73
:103970006061204670BD00002C0000200000C0FFE8
:10398000FFFFDF410000E0C110B5044800F044F83B
:10399000002801D04021C16010BD00002C00002093
:1039A00070B50546094800F037F8040007D010202C
:1039B000E0600649284600F041F8206108B1204641
:1039C00070BD204600F004F8002070BD2C000020DF
:1039D00070B504460F4E19E0A0892568C0050AD4C9
:1039E000A06820B1FFF7F4FFA089C00503D42069C7
:1039F00008B171688847A089800503D4206A08B19E
:103A0000716888477168204688472C46002CE3D1AE
:103A100070BD00002C00002010B5016828208847E8
:103A2000040002D02821FCF7C8FB204610BD00008E
:103A3000014A012100F0C0BD2C00002070B50E46E7
:103A400005000DD0FCF7D6FB401C316804468847C2
:103A5000060005D022462946FCF796FB304670BD8D
:103A6000002070BD10B5FCF742FE21F00041044A71
:103A7000044BFCF76FFE01D8012010BD002010BDE3
:103A8000BC89D897B2D29C3C10B504460420FEF7FE
:103A900041F80148046010BD3800002070B50546AB
:103AA00000244FF47A7603E0304600F005F8641CF9
:103AB000AC42F9D370BD000070B54FF0E024002295
:103AC00065690949A36909684843A1699942FCD01D
:103AD00002D2A3EB010302E0A5EB010633441A4432
:103AE0000B468242F1D370BD380000202DE9F04131
:103AF00004001CD02268D2B1636813B1A068984258
:103B000015D24FF00046B14211D2A568491C681881
:103B1000834202D35019BDE8F081216939B9B0F16F
:103B2000804F06D3B04202D26FF0004702E000207F
:103B3000F1E74700236A00262BB139461046984723
:103B4000050012D00CE0A1693846884705000CD06A
:103B5000A2682168521CFCF717FBE16920688847BE
:103B6000C4E90057A0682844D5E7E1692068884780
:103B700066602660DBE7000070B50A243220FFF79C
:103B8000A1F9064610A314A217A1FFF737F94FF4C5
:103B90007A7504E019A001F009F8641EE4B22A461F
:103BA0001DA1304600F0A6FB28B1002CF2D1304612
:103BB000FFF75AF905E03046FFF756F90CB100203F
:103BC00070BD012070BD000070617373776F726407
:103BD00030363036000000005A68616E67205A6542
:103BE0006E672054616F000041542B43574A415087
:103BF0003D222573222C222573220000C1B4BDD39F
:103C00004150CAA7B0DCA3ACB3A2CAD4D6D8D0C2A4
:103C1000C1ACBDD30D0A00005749464920474F5457
:103C20002049500010B577A000F0C0FF6420FDF7D8
:103C30003FFB322277A178A000F05CFB77A000F078
:103C4000B5FF00F02FFB08B179A0B8E080A000F02C
:103C5000ADFF84A000F0AAFF32226EA185A000F083
:103C600049FB08B185A01AE08AA000F09FFF8DA053
:103C700000F09CFF322267A167A000F03BFB08B177
:103C80008DA00CE092A000F091FF96A000F08EFFB6
:103C9000322260A198A000F02DFB20B199A000F085
:103CA00085FF012010BD9EA000F080FF76A000F0EF
:103CB0007DFF322257A19FA000F01CFB20B19FA0E6
:103CC00000F074FF022010BDA2A000F06FFF4FF4BF
:103CD0007A742046FDF7ECFA2046FDF7E9FA204613
:103CE000FDF7E6FA2046FDF7E3FAA0A000F05EFF3C
:103CF000322248A1A2A000F0FDFA20B1A4A000F059
:103D000055FF032010BDAAA000F050FFADA000F0A9
:103D10004DFFFFF731FF20B1AFA000F047FF0420B7
:103D200010BDB4A000F042FF2046FDF7C1FA2046C6
:103D3000FDF7BEFA2046FDF7BBFAB3A000F036FF50
:103D4000642234A1B4A000F0D5FA08B1B6A00CE00A
:103D5000BCA000F02BFFBFA000F028FF64222DA123
:103D6000C2A000F0C7FA20B1C3A000F01FFF0720D7
:103D700010BDC9A000F01AFFCDA000F017FF00F0A1
:103D80000BFA20B1CFA000F011FF082010BDD4A085
:103D900000F00CFF21A000F009FF00F083FA0028DA
:103DA0007FF452AF2AA000F001FFD2A000F0FEFE87
:103DB000322218A1D4A000F09DFA20B1D6A000F0C4
:103DC000F5FE062010BDDBA000F0F0FEDDA000F047
:103DD000EDFE22460FA1E0A000F08CFA20B1E1A098
:103DE00000F0E4FE092010BDE5A000F0DFFEE84988
:103DF000002008804FF44871E648FCF7DEF9002007
:103E000010BD0000D7BCB1B8C5E4D6C3C4A3BFE998
:103E10000D0A00004F4B000041540000D7BCB1B860
:103E2000CDCBB3F6CDB8B4ABC4A3CABD0A00000075
:103E3000CDCBB3F6CDB8B4ABC4A3CABDCAA7B0DC72
:103E4000A3ACD7BCB1B8D6D8C6F40D0A00000000A8
:103E5000CDCBB3F6CDB8B4ABC4A3CABDB3C9B9A674
:103E60000D0A0000D7BCB1B8B9D8B1D5BBD8CFD4F2
:103E70000D0A00004154453000000000B9D8B1D50A
:103E8000BBD8CFD4CAA7B0DCD7BCB1B8D6D8C6F49B
:103E90000D0A0000B9D8B1D5BBD8CFD4B3C9B9A6E3
:103EA0000D0A0000B2E9D1AFC4A3BFE9CAC7B7F198
:103EB000D4DACFDF0D0A0000C4A3BFE9B2BBD4DA65
:103EC000CFDFD7BCB1B8D6D8C6F40D0A00000000C9
:103ED000C9E8D6C3B2E9D1AFD4DACFDFB3C9B9A646
:103EE0000D0A0000D7BCB1B8C9E8D6C3535441C4C9
:103EF000A3CABD0D0A00000041542B43574D4F4447
:103F0000453D3100C9E8D6C3535441C4A3CABDCA14
:103F1000A7B0DCD7BCB1B8D6D8C6F40D0A000000F3
:103F2000C9E8D6C3535441C4A3CABDB3C9B9A60D89
:103F30000A00000041542B5253540000D6D8C6F456
:103F4000CAA7B0DCA3ACD7BCB1B8D6D8C6F40D0AAA
:103F500000000000D6D8C6F4B3C9B9A6A3ACB5C852
:103F6000B4FDC8FDC3EB0D0A00000000D7BCB1B81A
:103F7000C8A1CFFBD7D4B6AFC1ACBDD30D0A0000EA
:103F800041542B43574155544F434F4E4E3D300003
:103F9000C8A1CFFBD7D4B6AFC1ACBDD3CAA7B0DCE4
:103FA000A3ACD7BCB1B8D6D8C6F40D0A0000000047
:103FB000C8A1CFFBD7D4B6AFC1ACBDD3B3C9B9A6E6
:103FC0000D0A0000D7BCB1B8C1B4BDD3C2B7D3C9C4
:103FD000C6F70D0A00000000C1ACBDD3C2B7D3C9FB
:103FE000C6F7CAA7B0DCA3ACB5C8B4FDD6D8C6F432
:103FF0000D0A0000C1ACBDD3C2B7D3C9C6F7B3C95F
:10400000B9A60D0A00000000D7BCB1B8BFAAC6F41B
:10401000444843500D0A000041542B435744484341
:10402000503D312C31000000BFAAC6F44448435033
:10403000CAA7B0DCA3ACD7BCB1B8D6D8C6F40D0AB9
:1040400000000000C9E8D6C344484350B3C9B9A62C
:104050000D0A0000C9E8D6C3CEAAB9D8B1D5B6E0DA
:10406000C2B7C1ACBDD30D0A0000000041542B43C0
:1040700049504D55583D3000B9D8B1D5B6E0C2B71A
:10408000C1ACBDD3CAA7B0DCA3ACD7BCB1B8D6D83D
:10409000C6F40D0A00000000C9E8D6C3B9D8B1D5EE
:1040A000B6E0C2B7C1ACBDD3B3C9B9A60D0A000012
:1040B000D7BCB1B8C1B4BDD3B7FECEF1C6F70D0AB7
:1040C00000000000C1ACBDD3B7FECEF1C6F7CAA751
:1040D000B0DCA3ACB5C8B4FDD6D8C6F40D0A000058
:1040E000C1ACBDD3B7FECEF1C6F7B3C9B9A60D0AB0
:1040F00000000000C9E8D6C3CEAACDB8B4ABC4A3B3
:10410000CABD0D0A0000000041542B4349504D4FD9
:1041100044453D3100000000C9E8D6C3CDB8B4AB7A
:10412000CAA7B0DCA3ACD7BCB1B8D6D8C6F40D0AC8
:1041300000000000C9E8D6C3CDB8B4ABB3C9B9A676
:104140000D0A0000C9E8D6C3BFAAC6F4CDB8B4AB07
:10415000C4A3CABD0D0A000041542B434950534526
:104160004E440000BFAAC6F4CDB8B4ABCAA7B0DCB9
:10417000A3ACD7BCB1B8D6D8C6F40D0A0000000075
:10418000BFAAC6F4CDB8B4ABB3C9B9A60D0A000036
:10419000040000208400002070B50A243220FEF7BD
:1041A00091FE064610A312A21EA1FEF727FE4FF4B1
:1041B0007A7504E022A000F0F9FC641EE4B22A46FD
:1041C00027A1304600F096F828B1002CF2D13046F5
:1041D000FEF74AFE05E03046FEF746FE0CB1002031
:1041E00070BD012070BD0000313838330000000080
:1041F00061317730584A62587768302E696F742D74
:1042000061732D6D7174742E636E2D7368616E67AA
:104210006861692E616C6979756E63732E636F6D69
:104220000000000041542B43495053544152543D27
:1042300022544350222C222573222C257300000087
:10424000C1B4BDD3B7FECEF1C6F7CAA7B0DCA3ACEC
:10425000B3A2CAD4D6D8D0C2C1ACBDD30D0A000017
:10426000434F4E4E4543540010B50A4904460020C2
:1042700009880A040DD5084AC1F30E0150541146AD
:1042800006A000F093FC2146BDE810400248FBF771
:104290009FBF10BD040000208400002025730D0A7C
:1042A0000000000070B5104C20684006FCD50E4E92
:1042B0002B25361D35600F20FCF7FAFF20684006DD
:1042C000FCD535600F20FCF7F3FF20684006FCD5D5
:1042D00035604FF4FA70FCF7EBFFBDE87040142234
:1042E00002A103A000F006B8004800404F4B0000B8
:1042F000415400002DE9F047154D002689468046BF
:10430000144637462E804FF448711248FBF755FF8C
:10431000414611A000F06AFC8CB915E00A20FCF7B8
:10432000C7FF288800040AD54846FFF79DFF28B13B
:1043300049460BA000F03AFC2CB105E02F80641E2A
:104340002404240CEAD101263046BDE8F0870000A1
:10435000040000208400002025730D0A00000000E6
:1043600061636B3A25730D0A000000002DE9F041EE
:104370000B3020F00706104D19E02068B04215D32D
:10438000B0420AD9871B201DD4F80480FBF7FCFE3D
:10439000A019C0E90078286004E060682860201D4A
:1043A000FBF7F2FE201D2660BDE8F081251D2C687C
:1043B000002CE2D10020F7E73C0000201CB5FDF7FF
:1043C0009DF8FEF747FBFEF78BFAFEF7D1FAFEF7F2
:1043D00003FBFEF71DFB012240494148FDF7BEFEED
:1043E0004048FDF711FC4820FFF74EFB3EA000F0CF
:1043F000DDFB4FF47A763046FCF75AFF3046FCF787
:1044000057FF3046FCF754FF3A4C00BFFFF70AFC59
:104410000028FBD1FDF716FF0028FBD105E0C820DE
:10442000FCF746FF34A000F0C1FBFCF70BFE0028B0
:10443000F5D1DFF8D4803046FCF73AFF082140463A
:10444000FDF744F800B10120207001A96846FCF78F
:104450004EFEFFF799FA07462CA22EA1FFF74CFA61
:104460002DA234A13846FFF747FAFFF78DFA05462B
:104470002078FCF742F902460B4630A12846FFF7A8
:1044800021FA9DF80400FCF738F902460B462EA1EC
:104490002846FFF717FA9DF80000FCF72EF90246B0
:1044A0000B462DA12846FFF70DFA2A462FA13846C4
:1044B000FFF7FEF93846FFF7BBFA05463846FFF727
:1044C00087FA29462BA000F071FB29462CA0FDF7A6
:1044D000B7FF2846FEF7C8FCADE700000200002049
:1044E0006807002044000020BFAACABCC5E4D6C3A8
:1044F0000000000000000020444854313120666173
:10450000696C65640D0A00000018014031323334D3
:1045100035000000696400007468696E672E657676
:10452000656E742E70726F70657274792E706F7311
:10453000740000006D6574686F6400004C4544535E
:10454000776974636800000043757272656E744821
:10455000756D69646974790043757272656E74541F
:10456000656D70657261747572650000706172616D
:104570006D73000074696D653A25730D0A000000C3
:104580002F7379732F61317730584A6258776830CA
:104590002F536D6172744C45445F30312F746869DC
:1045A0006E672F6576656E742F70726F70657274AA
:1045B000792F706F73740000F0B589B00E4607460E
:1045C000144624216846FBF7F8FD4FF480752168F6
:1045D000284688470596CDE9000594E8070006AB14
:1045E00083E80700009888B36946384600F0FEF972
:1045F00040B3684600F01AFBA26800263AB102995F
:104600000098491C904705001CD0009617E00298BE
:104610002168401C8847050014D0DDE90110401CCA
:10462000814201D20A4601E0029A521C28460099B2
:10463000FBF7AAFD02982E54616800988847284627
:1046400009B0F0BD009808B1616888470020F7E71D
:104650002DE9F04185680C000FD001212046FFF7BD
:1046600045FA00280AD05B210170A068401CA060B8
:10467000E068401C0026E06025E00020BDE8F081F5
:104680002146284600F0B2F90028F7D0204600F075
:10469000CDFA2868B0B1606908B1022700E00127AF
:1046A000791C2046FFF722FA0028E7D02C2100F8D9
:1046B000011B616911B1202100F8011B0670A0687F
:1046C0003844A0602D68002DDAD102212046FFF782
:1046D0000DFA0028D2D05D2101704670E068401EBE
:1046E000E0600120CAE700002DE9F0438BB0D0E97B
:1046F0000667884600241C216846FBF75EFD002003
:10470000CDE908004FF02E09B8F1000F1DD0324658
:104710003B461DA16846FEF771FB054608AA1CA191
:104720006846FBF777FD012806D1DDE9080132462E
:104730003B46FFF797F930B932463B4615A168462C
:10474000FEF75CFB05461A2D03D300200BB0BDE835
:10475000F083691C4046FFF7C9F90028F6D0694686
:104760002E2306E00A5D4A4501D1035500E00255BB
:10477000641CAC42F6D300210155D8F80800411959
:104780000120C8F80810E1E725312E313567000017
:10479000256C670025312E31376700002DE9F04781
:1047A00085680C0003D0606920B1022603E0002078
:1047B000BDE8F0870126711C2046FFF797F9002815
:1047C000F6D07B2100F8011BE168491CE1606169BA
:1047D0000A2701B10770A0684FF00008304409268D
:1047E000A06059E088B12046E168FFF77FF9002812
:1047F000DED0002103E000BF00F8016B491CE26835
:104800008A42F9D8A0681044A0602146286A00F0C6
:1048100065F80028CCD0204600F008FA606908B19D
:10482000022000E00120814601462046FFF75EF9A4
:104830000028BDD03A2100F8011B616901B1067062
:10484000A16801EB0900A0602146284600F0CEF8DF
:104850000028ADD0204600F0E9F9606900B10120E0
:10486000296801B1012100EB010909F1010120468C
:10487000FFF73CF900289BD0296811B12C2100F8E2
:10488000011B616909B100F8017B80F80080A16813
:1048900001EB0900A0602D686069002DA2D110B164
:1048A000E168491C00E002212046FFF71FF90028BB
:1048B00086D0616949B1002103E000BF00F8016BB7
:1048C000491CE268521E8A42F8D87D21017080F8A6
:1048D0000180E068401EE060012069E72DE9F047B3
:1048E0000A0005464FF0000601D01DB120E000206F
:1048F000BDE8F08703211046FFF7F8F80028F7D04D
:1049000037A1FBF77EFC5AE00C2927D006DC0829EA
:1049100024D0092922D00A2906D11FE00D291DD053
:1049200022291BD05C2919D0202900D2761D401CD9
:1049300001780029E8D1401B8719F91C1046FFF7C0
:10494000D5F8041ED4D04FF022084FF0000984F8A7
:1049500000802EB1661C4FF05C0A28E0761CE6E76A
:104960003A462946601CFBF70FFC23E01F2803D9B9
:10497000222801D05C2830D106F801AB2A785046B5
:104980000C2A23D006DC082A1ED0092A24D00A2AA1
:1049900006D11DE00D2A1DD0222A12D05C2A1CD07F
:1049A00010A13046FEF72AFA361D6D1C761C2878B9
:1049B0000028DBD1E01980F8018080F80290012006
:1049C00096E786F80080F0E7622006E0662004E0C3
:1049D0006E2002E0722000E074203070E5E70000F5
:1049E00022220000752530347800000070B50400E4
:1049F0000E4613D096B1207B102843D008DC012846
:104A000016D002281ED004280AD0082806D121E09A
:104A100020283CD040283FD0802820D0002070BDE6
:104A200005213046FFF762F80028F8D01DA106E006
:104A300006213046FFF75AF80028F0D01BA1FBF7FB
:104A4000E0FB1DE005213046FFF750F80028E6D0D6
:104A500018A1F4E72046BDE87040FFF745BE206985
:104A60000028DCD0FBF7C6FB401C0546014630465B
:104A7000FFF73CF80028D2D02A462169FBF784FBD7
:104A8000012070BD2069BDE87040FFF727BF2046B8
:104A9000BDE87040FFF7DCBD2046BDE87040FFF781
:104AA0007DBE00006E756C6C0000000066616C736A
:104AB000650000007472756500000000016811F85F
:104AC000012B01601046704701684A7811F8023BDB
:104AD000016002EB03221046704700002DE9F04709
:104AE00004008A4616D054F8047CD4F800903E1F87
:104AF000564500D956462046FEF7B6F90546884683
:104B0000324621465046FFF731FC40B1C0F80090D4
:104B1000BDE8F087BDE8F0470846FEF7D3B944E9A1
:104B2000017955B129686A18211F8A4202D9611B8F
:104B3000091F2960C5F80480EAE7024AC2F800802C
:104B4000E6E700003C00002070B504460D466420F6
:104B5000FCF7AEFB2A4607492046FBF715FB064B40
:104B600000204FF4487118800248FBF726FB2846C6
:104B700070BD0000840000200400002070B50D46C8
:104B800007490020144608804FF448710548FBF798
:104B900014FBA2B229460448FDF732FB204670BD43
:104BA0000400002084000020680700200FB40D4896
:104BB00070B505AA0499FEF735F90A48FBF71AFB08
:104BC000C1B2094A0020074B141D06E015686D06A6
:104BD000FCD51D5C2560401CC0B28842F6D370BC79
:104BE0005DF814FBC4060020003801400FB40D48E6
:104BF00070B505AA0499FEF715F90A48FBF7FAFA09
:104C0000C1B2094A0020074B141D06E015686D0665
:104C1000FCD51D5C2560401CC0B28842F6D370BC38
:104C20005DF814FBA40300200048004010B5040008
:104C300009D02068002806D0A1680844FBF7DAFAFA
:104C4000A1680844A06010BD00F00F000A2801D23E
:104C5000303000E0573040B270472DE9F041BCB031
:104C60001E46429F1546884604005ED0002D5CD04B
:104C7000002E5AD0402F58DC402117A8FBF79DFA90
:104C8000402127A8FBF799FA3A46314617A8FBF7C7
:104C90007BFA3A46314627A8FBF776FA002117A897
:104CA00027AA435C83F036034354535C83F05C03D0
:104CB0005354491C4029F4DB684600F0A5F86846C7
:104CC00001F0C6F9402217A9684601F0D7F942461B
:104CD0002146684601F0D2F937A9684600F028F865
:104CE000684600F091F8684601F0B2F9402227A921
:104CF000684601F0C3F9142237A9684601F0BEF9ED
:104D000037A9684600F014F8002437AE305D00097A
:104D1000FFF79AFF05F81400305DFFF795FF05EBEC
:104D20004401641C4870142CF0DB3CB0BDE8F081F9
:104D30007CB50D46044601686268480F40EAC2002F
:104D4000020E8DF80020020C8DF80120020A8DF869
:104D50000220C9008DF80300080E8DF80400080C2D
:104D60008DF80500080A8DF806008DF807102078E8
:104D700000F03F00382802D2C0F1380201E0C0F153
:104D800078022049204601F079F908226946204638
:104D900001F074F9A068000E2870A068000C68701B
:104DA0002089000AA870207AE870E068000E287157
:104DB000E068000C6871A089000AA871207BE87186
:104DC0002069000E28722069000C6872208A000A8F
:104DD000A872207CE8726069000E28736069000C7C
:104DE0006873A08A000AA873207DE873A069000E8A
:104DF0002874A069000C6874208B000AA874207EB7
:104E0000E8747CBDE46100085C21FBF7D6B90000C2
:104E10002DE9F04F0A689BB012BA22F0FF0CCA7855
:104E20004CEA020CCDF864C04A6812BA22F0FF06C0
:104E3000CA79164316968A6812BA22F0FF06CA7A11
:104E400016431596CA6812BA22F0FF0CCA7B4CEAC8
:104E5000020CCDF850C00A6912BA22F0FF06CA7CD3
:104E600016430E964A6912BA22F0FF0CCA7D4CEA2C
:104E7000020CCDF834C08A6912BA22F0FF06CA7E4D
:104E800016430C96CA6912BA22F0FF05CA7F154371
:104E90000A950A6A12BA22F0FF0691F8232046EA20
:104EA000020E4A6A12BA22F0FF0691F82720164332
:104EB00008968A6A12BA22F0FF0691F82B20164350
:104EC0000796CA6A12BA22F0FF0791F82F201743FB
:104ED0000A6B12BA22F0FF0591F8332091F83730AF
:104EE00045EA020A4A6B91F83B4012BA22F0FF02EF
:104EF0001A438B6BD0F808C01BBA23F0FF0323437F
:104F0000CC6B91F83F10CDF84CC0C6681296039652
:104F10000569E346119524BAD0F814C024F0FF04C3
:104F20000C43CDF860C081690B91884685EA0C017D
:104F30003140E14681EA0C01DDF864C001EBFB661B
:104F40000CEB08010E44FE4906EB0108039ECDF868
:104F500000804FEAB60603966E4006EA0B066E40E6
:104F600006EBF868169E4FEABB0B4E44464406EB30
:104F70000108CDF80480039EDDF800808BEA060C62
:104F80000CEA080C8CEA060CDDF80480159E0CEB8C
:104F9000F86C3544DDF8008065444FEAB809DDF867
:104FA000048089EA0B0605EB010C06EA080686EA8E
:104FB0000B0606EBFC65CDF808C0DDF850C0039E7B
:104FC0006644354405EB010CCDF80CC04FEAB8053A
:104FD000DDF808C085EA090808EA0C08DDF80CC00D
:104FE00088EA09080E9E08EBFC685E44464406EB1E
:104FF0000108DDF808C0CDF810804FEABC06029623
:10500000DDF80CC06E4006EA0C066E40DDF834C0D8
:1050100006EBF8680CEB090646440E440096DDF8F2
:105020000CC0029E4FEABC0BDDF810808BEA060C28
:105030000CEA080C8CEA060C009E4FEAB8090CEB4F
:10504000F66C0C9E89EA0B083544009E654405EB1E
:10505000010C08EA0608029E0A9DCDF804C088EA01
:105060000B08354408EBFC6C654405EB010C009E15
:10507000CDF808C04FEAB605DDF804C085EA090698
:1050800006EA0C06DDF808C086EA090606EBFC68AD
:105090000EEB0B064644DDF804C006EB010B4FEAAD
:1050A000BC060196DDF808C06E4006EA0C066E40AC
:1050B00006EBFB6C089E4E44664406EB0108DDF8E7
:1050C00008C0019E4FEABC0989EA060C0CEA0B0CE9
:1050D0008CEA060C079E4FEABB0B35440CEBF86CD0
:1050E0008BEA0906654406EA080605EB010C86EA28
:1050F000090606EBFC65019ECDF810803E44354460
:105100006E184FEAB805049585EA0B0505EA0C050B
:10511000019685EA0B0505EBF6660AEB09053544B1
:10512000CDF800C06E18DDF800C00296049D4FEA6D
:10513000BC0C019E8CEA050808EA0608029E88EA73
:10514000050808EBF66502EB0B063544019E05EBFE
:1051500001094FEAB60B029E8BEA0C05354085EA41
:105160000C0505EBF966049D1D443544029E05EBD4
:1051700001084FEAB606029686EA0B0606EA090619
:1051800086EA0B0606EBF86504EB0C0635446E1850
:105190000096DDF864C0159ECDF810804FEAB9097D
:1051A00082EA0E0586EA0C067540029EDDF8108044
:1051B00089EA060C0CEA080C8CEA060C009E4FEA01
:1051C000F5750CEBF66619952E4406EB0B056E187B
:1051D0000196089E4FEAB80583EA0608DDF850C03C
:1051E000169E8CEA060C88EA0C0B009E85EA0908DC
:1051F00008EA0608019E88EA090808EBF66C4FEAFF
:10520000FB76B4441696029EDDF85480664406EBA5
:10521000010B079EDDF838C066408CEA080C009947
:1052200086EA0C061A964FEAB101DDF804C081EA5D
:10523000050606EA0C066E4006EBFB681A9E4FEA6E
:10524000F67CCDF854C0C4443D4ECC44B444019ED9
:10525000CDF80CC04FEAB6060196199EDDF834C0B1
:10526000DDF850807E408CEA080C86EA0C09019E2D
:10527000DDF80CC04E4006EA0B064E4006EBFC681B
:105280004FEAF97C08EB0C062E442D4DCDF850C0AA
:1052900035440495DDF838C00C9E169D86EA0C0650
:1052A00085EA0A0585EA06084FEABB09DDF80CC065
:1052B000019E8CEA090C049D8CEA060C0CEBF56649
:1052C0004FEAF87B06EB0B050D441E49DDF80CC0D8
:1052D0006E184FEABC080096CDF80C80DDF854C07B
:1052E0000D9E0A9D8CEA020C75408CEA050C049D0B
:1052F000009E85EA080585EA090505EBF6654FEA93
:10530000FC7635440D96019EDDF850C035440D44C1
:105310000195049D0C9E4FEAB5088EEA0605009E95
:10532000CDF810808CEA030C86EA08068CEA050C9E
:10533000DDF80C80019D86EA080606EBF56503E0C2
:105340009979825AA1EBD96E4FEAFC7635444D44E7
:1053500005EB0109CDF808900C96009E089D4FEAD8
:10536000B60CCDF800C00A9E8BEA0408754088EAA6
:105370000506019DDDF8108085EA0C0585EA080523
:105380004FEAF67605EBF965DDF80C8035444544C7
:1053900005EB010C019D0A964FEAB508CDF80CC04B
:1053A000DDF800C00D9E199D89EA080989EA0C09FB
:1053B0006E40DDF80CC0079D09EBFC6C85EA0E051C
:1053C0006E40CDF804804FEAF675DDF808900CEBDE
:1053D0000506DDF810804FEAB9094644CDF808907B
:1053E00006EB0108DDF858C00C9ECDF8108086EA67
:1053F0000C06DDF820C0DDF8048087EA0C0C86EA94
:105400000C06DDF80CC04FEAF67E8CEA090C8CEA3B
:10541000080CDDF810800CEBF86C0CEB0E06DDF8D8
:1054200000C0DDF81C80664406EB010CCDF800C01E
:10543000DDF80CC00A9E4FEABC09DDF854C0CDF877
:105440000C9086EA0C068AEA080CDDF8108086EAE1
:105450000C0688EA0908DDF80890DDF800C088EA43
:10546000090808EBFC6C4FEAF6780CEB0806CDF85F
:105470001C80DDF80480DDF850C0464406EB0108CE
:10548000CDF80480DDF8108085EA0C064FEAB809F3
:10549000DDF800C0CDF810908CEA090C5740DDF81B
:1054A0000C907E408CEA090CDDF804804FEAF67718
:1054B0000CEBF86C0CEB0706DDF80890DDF800C08B
:1054C0004E44069777184FEABC09029788EA090804
:1054D000CDF800908EEA0B0683EA0A07DDF81090FB
:1054E0007E4088EA0908029F4FEAF67A08EBF76CDB
:1054F000DDF80C900CEB0A064E44DDF8048006EB58
:10550000010C4FEAB8060196DDF81C800D9E624042
:1055100088EA0608DDE90167DDF80090774087EA50
:10552000090788EA020807EBFC664FEAF872029F57
:10553000179232444FEAB708069F0C9EDDF8109090
:1055400077404A44199E0A445E407740019E8CEAA7
:105550000803734003EBF2664FEAF773109333448A
:105560004FEABC0603960A9EDDF800908AEA060719
:10557000169E4B4466407740039E0B4482EA060425
:1055800084EA080404EBF3664FEAF7740F9434449A
:10559000019E4FEAB20734440C440194DDF854C034
:1055A000199C179A8CEA040C6A4082EA0C0283EA7E
:1055B000070C039E019C8CEA060C0CEBF4664FEA88
:1055C000F27432194244199456184FEAB3090296FC
:1055D000109BDDF850C0169A019C83EA0E038CEAFA
:1055E000020C83EA0C0384EA09047C404FEAF3725C
:1055F00004EBF66416922244019CDDF81C804FEA0D
:10560000B40CCDF804C00F9C039EDDF854C084EAAE
:10561000080432448BEA0C08DDE901C60A4484EA36
:10562000080486EA0C0686EA09064FEAF47406EBDB
:10563000F26323443B445E180496029E15944FEA9D
:10564000B6070297069F199CDDF850C07C400D9E5E
:10565000029F86EA0C06744082EA0703DDF804C064
:10566000049E83EA0C0303EBF6664FEAF47314938B
:1056700033444FEAB204169A0C9E82EA0A0286EA82
:105680000B067240049E029F4B4466400B447E40D2
:105690004FEAF27206EBF3660E92324462445618F9
:1056A000049A179F4FEAB208159ADDF834C07A4081
:1056B0000A9F87EA0C077A4083EA080767404FEAA7
:1056C000F27207EBF66717440D92029A3A4402EB26
:1056D000010B4FEAB3070097149A109986EA070363
:1056E0004A400C9983EA080369404A4003EBFB6196
:1056F0004FEAF27211440C920A19FE490A9C53189F
:10570000DDE90E214A408EEA04014A404FEAB6091B
:10571000009F8BEA0901794001EBF3614FEAF274D3
:10572000214401EB0802F3490A9454180D9A19997F
:105730004FEABB064A400799009F69404A4043EA46
:10574000060503EA060105EA090529434FEAF27551
:1057500001EBF4612944CA19E749099555184FEA44
:10576000B307169B0C9A44EA070C5A40069B0CEAB6
:10577000060C83EA0E035A4004EA070343EA0C03CB
:105780004FEAF27203EBF56308921A444FEAB40C45
:105790000A9C159BDDF81C805C408AEA08035C408B
:1057A00045EA0C084A4405EA0C0308EA07080A44DB
:1057B00043EA08034FEAF47403EBF26323443344EF
:1057C00007945C184FEAB509099D149B069E5D403D
:1057D000179B4FEAB20B73405D4042EA090602EAAA
:1057E000090306EA0C06334303EBF4664FEAF5734C
:1057F000F5180E9E089A3D447240109E44EA0B072D
:1058000086EA0A06724004EA0B0607EA09073E43E5
:105810000D444FEAF27206EBF5660592324462449B
:1058200056184FEAB407079C0D9ADDF85CC0544047
:105830000F9A82EA0C02544045EA070C05EA070277
:105840000CEA0B0C42EA0C0202EBF66C4FEAF47223
:10585000179262444A4402EB010C0C9A4FEAB509D4
:1058600083EA0204109D199A6A40544046EA0905E9
:1058700006EA09023D402A434FEAF47E02EBFC624D
:1058800072445A4402EB01080A9C059A0F9D62403B
:10589000169C4FEAB60B6C4062404CEA0B050CEAD2
:1058A0000B0405EA09052C434FEAF27204EBF86495
:1058B0000F9222443A445418099D179A199E6A403F
:1058C000159D4FEABC07754082EA050C48EA0705BA
:1058D00008EA070205EA0B052A434FEAFC7A02EBC5
:1058E000F46505EB0A024A445518089A4FEAB80CC9
:1058F000CDF864A08EEA0208169E149A8AEA030A7A
:10590000724088EA020844EA0C0604EA0C023E40AF
:1059100032434FEAF87602EBF56232445A44169667
:1059200056184FEAB40B079C0F9ADDF8548062407A
:105930000E9C84EA0804624045EA0B0405EA0B0861
:1059400004EA0C0448EA040808EBF6644FEAF2792A
:1059500004EB09023A445418149F0D9A4FEAB50516
:105960007A408AEA020A46EA050706EA050207EAD9
:105970000B073A43CDF8549002EBF4674FEAFA7202
:1059800014923A44624457184FEAB608169E059A94
:10599000DDF838C056400C9ADDF8549082EA0C02CB
:1059A000564044EA080204EA080C2A404CEA020C79
:1059B0004FEAF6760CEBF76232445A440E965618CC
:1059C000179A4FEAB40A89EA02090A9C0D9ADFF88D
:1059D00028B1544089EA040947EA0A0407EA0A029E
:1059E00004EA080422434FEAF97402EBF662224407
:1059F0002A4455180D940C9C099A1499624081EA26
:105A00000E0181EA020C4FEAB70746EA070206EAEE
:105A1000070102EA0A0211434FEAFC7C01EBF5623E
:105A200002EB0C0101EB08024FEAB604DDE90E615E
:105A3000CDF830C04E40DDF828C008995A4481EABC
:105A40000C014E4045EA040C05EA04010CEA070C7F
:105A500041EA0C014FEAF67601EBF2610A960E4438
:105A6000564406EB0B01DDF864C00D9EDDF8248082
:105A700086EA0C06DDF81CC04FEAB5058CEA080C76
:105A800086EA0C0642EA050802EA050C08EA040860
:105A90004CEA080C4FEAF6760CEBF16C099666447A
:105AA0004FEAB209DDF830C0169A37448CEA020C8E
:105AB000089A41EA09065A408CEA020C07EB0B08E7
:105AC00001EA09022E40324302EBF8664FEAFC720B
:105AD0001644264406EB0B04159F0A9EDDF81CC0F5
